:020000040800F2
:10000000000003206D540008B19D0008499D0008C0
:100010005D9D0008619D0008659D000800000000CE
:10002000000000000000000000000000B59D000876
:10003000B99D000800000000BD9D0008C59D000896
:10004000699D00086D9D00089D1A0108719D0008BA
:10005000759D0008799D0008ED970008F597000848
:10006000FD970008059800080D9800089D1A0108E2
:100070009D1A01089D1A01089D1A01089D1A010880
:100080009D1A01089D1A01089D1A01089D1A010870
:100090009D1A01089D1A0108899D000815980008FD
:1000A0009D1A0108E96500089D1A01089D1A0108BA
:1000B000F16500089D1A0108D5DC0008E1DC0008A4
:1000C000EDDC0008F9DC00087D9D0008819D00083A
:1000D00049D5000861D50008A19D0008A59D00082C
:1000E0002D980008859D00089D1A01089D1A010899
:1000F000499F0008B59E00089D1A01088D9D0008C3
:10010000919D00089D1A01089D9D00089D1A0108F7
:100110009D1A0108A99D0008AD9D00089D1A0108BF
:100120009D1A01089D1A01089D1A01089D1A0108CF
:0C013000959D0008999D00089D1A01088B
:1001400001F0FF01102A2BDB10F0070F08D010F888
:10015000013B013A8B422DD010F0070F42B3F6D18C
:10016000F0B441EA012141EA014122F007047FF0A5
:1001700000070023F0E80256083C85EA010586EAFC
:10018000010685FA47F5A3FA87F586FA47F6A5FA38
:1001900087F68EB9EED1F0BC01F0FF0102F0070244
:1001A00032B110F8013B013A83EA010313B1F8D1EF
:1001B0000020704701387047002D06BF35460338D0
:1001C000073815F0010F07D1013015F4807F02BF09
:1001D000013015F4C03F0130F0BC0138704700BF5A
:1001E000002815D0006041608260C36004614561F1
:1001F0008661C761444604624C4644625446846248
:100200005C46C462644604636E4646637446846317
:10021000002906D0C46B043C043925680D60B44243
:10022000F9D1946BA646566BB546002B06D0D46B1D
:10023000043C043B1D682560B442F9D1146BA4460C
:10024000D46AA346946AA246546AA146146AA04698
:10025000D769966955691469D368516810689268BE
:100260007047006041608260C360046145618661DF
:10027000C761444604624C464462544684625C460C
:10028000C462644604636E46466374468463C46B0A
:10029000043C043925680D60B442F9D1C769866908
:1002A000456904697047006041608260C360046111
:1002B00045618661C761444604624C4644625446C7
:1002C00084625C46C462644604636C46446374465C
:1002D000846304697047846BA646446BA546046B2F
:1002E000A446C46AA346846AA246446AA146046A34
:1002F000A046C769866945690469C3688268006861
:100300004168704781F0004102E000BF83F0004384
:1003100030B54FEA41044FEA430594EA050F08BFA0
:1003200090EA020F1FBF54EA000C55EA020C7FEA64
:10033000645C7FEA655C00F0E2804FEA5454D4EBE1
:100340005555B8BF6D420CDD2C4480EA020281EAAB
:10035000030382EA000083EA010180EA020281EAE3
:100360000303362D88BF30BD11F0004F4FEA013135
:100370004FF4801C4CEA113102D0404261EB410144
:1003800013F0004F4FEA03334CEA133302D05242CA
:1003900063EB430394EA050F00F0A780A4F1010486
:1003A000D5F1200E0DDB02FA0EFC22FA05F28018C0
:1003B00041F1000103FA0EF2801843FA05F35941A6
:1003C0000EE0A5F120050EF1200E012A03FA0EFC25
:1003D00028BF4CF0020C43FA05F3C01851EBE3714F
:1003E00001F0004507D54FF0000EDCF1000C7EEB6C
:1003F00000006EEB0101B1F5801F1BD3B1F5001FAA
:100400000CD349085FEA30004FEA3C0C04F10104C8
:100410004FEA445212F5800F80F09A80BCF1004FF1
:1004200008BF5FEA500C50F1000041EB045141EA73
:10043000050130BD5FEA4C0C404141EB0101013C3C
:1004400028BFB1F5801FE9D291F0000F04BF01462B
:100450000020B1FA81F308BF2033A3F10B03B3F1FD
:1004600020020CDA0C3208DD02F1140CC2F10C028D
:1004700001FA0CF021FA02F10CE002F11402D8BFEB
:10048000C2F1200C01FA02F120FA0CFCDCBF41EAB7
:100490000C019040E41AA2BF01EB0451294330BD86
:1004A0006FEA04041F3C1CDA0C340EDC04F1140463
:1004B000C4F1200220FA04F001FA02F340EA03003A
:1004C00021FA04F345EA030130BDC4F10C04C4F180
:1004D000200220FA02F001FA04F340EA0300294660
:1004E00030BD21FA04F0294630BD94F0000F83F4AA
:1004F000801306BF81F480110134013D4EE77FEA8D
:10050000645C18BF7FEA655C29D094EA050F08BFD8
:1005100090EA020F05D054EA000C04BF19461046B9
:1005200030BD91EA030F1EBF0021002030BD5FEAFD
:10053000545C05D14000494128BF41F0004130BD25
:1005400014F580043CBF01F5801130BD01F0004579
:1005500045F0FE4141F470014FF0000030BD7FEAEC
:10056000645C1ABF194610467FEA655C1CBF0B46E7
:10057000024650EA013406BF52EA033591EA030FFE
:1005800041F4002130BD00BF90F0000F04BF0021F6
:10059000704730B54FF4806404F132044FF0000529
:1005A0004FF0000150E700BF90F0000F04BF0021A2
:1005B000704730B54FF4806404F1320410F0004508
:1005C00048BF40424FF000013EE700BF42004FEA03
:1005D000E2014FEA31014FEA02701FBF12F07F4380
:1005E00093F07F4F81F06051704732F07F4208BF37
:1005F000704793F07F4F04BF41F40021704730B53E
:100600004FF4607401F0004521F000411CE700BF89
:1006100050EA010208BF704730B54FF000050AE00C
:1006200050EA010208BF704730B511F0004502D50D
:10063000404261EB41014FF4806404F132045FEA0F
:10064000915C3FF4D8AE4FF003025FEADC0C18BFB8
:1006500003325FEADC0C18BF033202EBDC02C2F1AA
:10066000200300FA03FC20FA02F001FA03FE40EA3C
:100670000E0021FA02F11444BDE600BF70B54FF040
:10068000FF0C4CF4E06C1CEA11541DBF1CEA13551E
:1006900094EA0C0F95EA0C0F00F0DEF82C4481EA86
:1006A000030621EA4C5123EA4C5350EA013518BFA6
:1006B00052EA033541F4801143F4801338D0A0FB93
:1006C00002CE4FF00005E1FB02E506F00042E0FB40
:1006D00003E54FF00006E1FB03569CF0000F18BF46
:1006E0004EF0010EA4F1FF04B6F5007F64F54074EE
:1006F00004D25FEA4E0E6D4146EB060642EAC62181
:1007000041EA55514FEAC52040EA5E504FEACE2EED
:10071000B4F1FD0C88BFBCF5E06F1ED8BEF1004FF0
:1007200008BF5FEA500E50F1000041EB045170BD6C
:1007300006F0004646EA010140EA020081EA0301B0
:10074000B4EB5C04C2BFD4EB0C0541EA045170BDAC
:1007500041F480114FF0000E013C00F3AB8014F126
:10076000360FDEBF002001F0004170BDC4F100046F
:10077000203C35DA0C341BDC04F11404C4F12005F0
:1007800000FA05F320FA04F001FA05F240EA02004B
:1007900001F0004221F0004110EBD37021FA04F681
:1007A00042EB06015EEA430E08BF20EAD37070BD3B
:1007B000C4F10C04C4F1200500FA04F320FA05F09A
:1007C00001FA04F240EA020001F0004110EBD3709C
:1007D00041F100015EEA430E08BF20EAD37070BD0C
:1007E000C4F1200500FA05F24EEA020E20FA04F3E5
:1007F00001FA05F243EA020321FA04F001F0004194
:1008000021FA04F220EA020000EBD3705EEA430E04
:1008100008BF20EAD37070BD94F0000F0FD101F033
:100820000046400041EB010111F4801F08BF013C6C
:10083000F7D041EA060195F0000F18BF704703F0AA
:100840000046520043EB030313F4801F08BF013D31
:10085000F7D043EA0603704794EA0C0F0CEA1355ED
:1008600018BF95EA0C0F0CD050EA410618BF52EAA7
:100870004306D1D181EA030101F000414FF00000AD
:1008800070BD50EA410606BF1046194652EA4306BB
:1008900019D094EA0C0F02D150EA013613D195EA2F
:1008A0000C0F05D152EA03361CBF104619460AD177
:1008B00081EA030101F0004141F0FE4141F4700181
:1008C0004FF0000070BD41F0FE4141F4780170BD71
:1008D00070B54FF0FF0C4CF4E06C1CEA11541DBFD6
:1008E0001CEA135594EA0C0F95EA0C0F00F0A7F8D8
:1008F000A4EB050481EA030E52EA03354FEA013105
:1009000000F088804FEA03334FF0805545EA131317
:1009100043EA12634FEA022245EA111545EA1065DF
:100920004FEA00260EF000419D4208BF964244F176
:10093000FD0404F5407402D25B084FEA3202B61A95
:1009400065EB03055B084FEA32024FF480104FF469
:10095000002CB6EB020E75EB030E22BFB61A7546DD
:1009600040EA0C005B084FEA3202B6EB020E75EB70
:10097000030E22BFB61A754640EA5C005B084FEAD8
:100980003202B6EB020E75EB030E22BFB61A7546A5
:1009900040EA9C005B084FEA3202B6EB020E75EBB0
:1009A000030E22BFB61A754640EADC0055EA060E71
:1009B00018D04FEA051545EA16754FEA06164FEAB4
:1009C000C30343EA52734FEAC2025FEA1C1CC0D160
:1009D00011F4801F0BD141EA00014FF000004FF0ED
:1009E000004CB6E711F4801F04BF01430020B4F1AE
:1009F000FD0C88BFBCF5E06F3FF6AFAEB5EB030C66
:100A000004BFB6EB020C5FEA500C50F1000041EB62
:100A1000045170BD0EF0004E4EEA113114EB5C042F
:100A2000C2BFD4EB0C0541EA045170BD41F4801102
:100A30004FF0000E013C90E645EA060E8DE60CEA0A
:100A4000135594EA0C0F08BF95EA0C0F3FF43BAF27
:100A500094EA0C0F0AD150EA01347FF434AF95EADE
:100A60000C0F7FF425AF104619462CE795EA0C0FC2
:100A700006D152EA03353FF4FDAE1046194622E78F
:100A800050EA410618BF52EA43067FF4C5AE50EA69
:100A900041047FF40DAF52EA43057FF4EBAE12E759
:100AA0004FF0FF3C06E000BF4FF0010C02E000BF3A
:100AB0004FF0010C4DF804CD4FEA410C7FEA6C5C1D
:100AC0004FEA430C18BF7FEA6C5C1BD001B050EAC0
:100AD000410C0CBF52EA430C91EA030F02BF90EAAB
:100AE000020F0020704710F1000F91EA030F58BF6A
:100AF000994208BF90422CBFD8176FEAE37040F0CC
:100B0000010070474FEA410C7FEA6C5C02D150EA69
:100B1000013C07D14FEA430C7FEA6C5CD6D152EA24
:100B2000033CD3D05DF8040B704700BF84461046E9
:100B300062468C461946634600E000BF01B5FFF7E8
:100B4000B7FF002848BF10F1000F01BD4DF808EDB8
:100B5000FFF7F4FF0CBF012000205DF808FB00BF89
:100B60004DF808EDFFF7EAFF34BF012000205DF8E3
:100B700008FB00BF4DF808EDFFF7E0FF94BF012030
:100B800000205DF808FB00BF4DF808EDFFF7CEFF31
:100B900094BF012000205DF808FB00BF4DF808ED70
:100BA000FFF7C4FF34BF012000205DF808FB00BF41
:100BB0004FEA410C7FEA6C5C02D150EA013C0AD159
:100BC0004FEA430C7FEA6C5C02D152EA033C02D14B
:100BD0004FF0000070474FF0010070474FEA4102AC
:100BE00012F5001215D211D56FF47873B3EB62527F
:100BF00012D94FEAC12343F0004343EA505311F0A6
:100C0000004F23FA02F018BF404270474FF0000037
:100C1000704750EA013005D111F0004008BF6FF075
:100C2000004070474FF00000704700BF4A0011D2EB
:100C300012F5001211D20DD56FF47873B3EB625236
:100C40000ED44FEAC12343F0004343EA505323FA42
:100C500002F070474FF00000704750EA013002D1B7
:100C60004FF0FF3070474FF00000704753B94AB95A
:100C7000002908BF00281CBF4FF0FF314FF0FF30A4
:100C800000F00CB8ADF1080C6DE904CE10F06CFD6D
:100C9000DDF804E0DDE9022304B07047704700BFCF
:100CA000034613F8012B002AFBD1181A01387047AC
:100CB0002DE9F04FC76999B08DED040B55EC104B41
:100CC000229E099183460E9213937FB9102002F061
:100CD000AFFB0246CBF81C0020B9A54BEF21A5487D
:100CE00010F0F0F9C0E901770760C760DBF81C304D
:100CF000196859B15A684A60012393408B6058467D
:100D000010F050FADBF81C3000221A602B1EB9BF1D
:100D100023F00043059300233360059F964BBCBF2F
:100D200001223260BB4312D1139A42F20F73136057
:100D3000C7F31303234300F04385239BDFF84CA242
:100D4000002B00F045850AF1030300F03FBD9DED47
:100D5000047B002251EC170B00238DED0C7BFFF779
:100D6000F5FE804658B1139A01231360239B13B1FB
:100D7000239A824B1360DFF818A200F029BD9DED85
:100D80000C0B16AA17A9584610F086FCC7F30A5692
:100D90008146002E77D00D9BCDF85080C3F313030E
:100DA000DDE90C0143F07F5343F44013A6F2FF3614
:100DB00019460022724BFFF7A9FA67A3D3E9002373
:100DC000FFF75CFC66A3D3E90023FFF7A1FA044612
:100DD00030460D46FFF7E8FB63A3D3E90023FFF796
:100DE0004DFC02460B4620462946FFF791FA044681
:100DF0000D46FFF7F3FE0022074600232046294652
:100E0000FFF7AEFE40B13846FFF7CEFB22462B4639
:100E1000FFF79CFE00B9013F162F51D8594B03EB49
:100E2000C703D3E90023DDE90C01FFF799FE002891
:100E300048D0013F00231293169B9B1B5A1E44BFB0
:100E4000C3F101080023089254BF4FF00008089333
:100E5000002F39DB089B0F973B44089300230A932C
:100E6000099B092B61D8052BC4BF043B0993099B3F
:100E7000A3F10203CCBF00240124032B61D8DFE8D7
:100E800003F05052352ADDE916631E4406F2324360
:100E9000202BC1BFC3F140039F4006F2124324FA46
:100EA00003F3D6BFC3F1200347EA030004FA03F0BB
:100EB000FFF76AFB0122A1F1F873013E149277E774
:100EC0000123B8E71290B7E77B420A930023A8EB0F
:100ED00007080F93C4E701230B930E9BFB180093A5
:100EE0000133012B0393B8BF012306E001230B93C9
:100EF0000E9B002B28DD00930393DBF81C000021E0
:100F0000042202F114059D4223D94160584610F095
:100F100009F9824600283DD11B4B024640F2AF1131
:100F2000DDE60023E3E70023D6E70124002309934D
:100F30000B944FF0FF3300930393002212230E9281
:100F4000DBE701230B93F4E70123009303931A4695
:100F5000F5E701315200D4E761436F63A787D23FC1
:100F6000B3C8608B288AC63FFB799F501344D33F98
:100F7000BE370108D53701080000F07F7D37010832
:100F80000000F83FC02701082E380108BA370108D1
:100F90007C370108DBF81C301860039B0E2B00F235
:100FA000A180002C00F09E80002F33DD9C4B07F0C9
:100FB0000F0203EBC20393ED007BF8058DED067B7A
:100FC0004FEA271416D5974BDDE90C01D3E9082326
:100FD000FFF77EFCCDE9040104F00F040326914DD8
:100FE00054B9DDE90623DDE90401FFF771FCCDE921
:100FF000040128E00226F2E7E10708D5DDE9060151
:10100000D5E90023FFF73AFBCDE90601013664106C
:101010000835E5E700F0AF807C42814B814D04F05C
:101020000F0203EBC203D3E90023DDE90C01FFF754
:1010300025FBCDE90401241100230226002C40F0F9
:101040008F80002BD3D1129BDDE90445002B00F0EB
:101050009480754B002220462946FFF781FD002829
:1010600000F08B80039B002B00F08780009B002BFF
:1010700034DD7B1E069320466C4B00222946FFF789
:10108000FDFACDE90401009C01363046FFF78CFAE9
:10109000DDE90423FFF7F2FA654B0022FFF738F988
:1010A0000546A1F15076002C6AD1DDE90401614BBF
:1010B0000022FFF72BF902460B46CDE904232A460E
:1010C0003346FFF76BFD002840F08782DDE904011D
:1010D0002A4606F10043FFF743FD38BBDDE90C3437
:1010E000CDE90434179B002BC0F258810E2F00F37A
:1010F00055814B4B03EBC70393ED007B0E9B002BFD
:101100008DED007B80F2E580039B002B00F3E180F6
:101110000CD1484B002251EC170BFFF7AFFADDE979
:101120000423FFF731FD002800F0558200242546F6
:101130000E9BDB430693564600272146584610F087
:1011400031F8002D00F0BD802FB1AF4203D03946F9
:10115000584610F027F82946584610F023F8B0E01A
:10116000E20705D5D5E90023FFF788FA0136012308
:101170006410083562E7022665E7039C069784E75A
:10118000274B0B9903EBC40353E902235444002972
:1011900054D029490020FFF79BFB33462A46FFF72E
:1011A000B5F8CDE910015646DDE90401FFF716FD5B
:1011B0000546FFF7F9F902460B46DDE90401FFF7A2
:1011C000A5F8303502460B46CDE9042306F8015B4D
:1011D000DDE91023FFF7C4FC002872D1DDE9042308
:1011E00011490020FFF792F8DDE91023FFF7B8FC62
:1011F000002840F0B480A6423FF470AFDDE9100152
:101200000A4B0022FFF73AFA084BCDE91001002201
:10121000DDE90401FFF732FACDE90401C4E700BFBC
:10122000C0270108982701080000F03F0000244073
:1012300000001C40000014400000E03F31462846FA
:10124000FFF71CFACDE9100115945646DDE90401BB
:10125000FFF7C4FC0546FFF7A7F902460B46DDE998
:101260000401FFF753F8303506F8015B02460B46E0
:10127000A642CDE904234FF0000224D1AB4BDDE9B7
:101280001001FFF745F802460B46DDE90401FFF7C0
:1012900085FC002863D1DDE91023A4490020FFF775
:1012A00035F802460B46DDE90401FFF759FC00283A
:1012B0003FF414AF159E731E159316F8013C302BA6
:1012C000F8D0069F3BE09A4BFFF7D8F9CDE904012F
:1012D000BCE7DDE904455646DDE900232046294602
:1012E000FFF7F6FAFFF77AFC8046FFF75DF9DDE9D4
:1012F0000023FFF7C3F902460B462046294608F1B2
:101300003004FFF703F806F8014B039DA6EB0A042F
:10131000A54202460B4634D1FEF7FAFFDDE9002371
:1013200004460D46FFF73AFCC0B9DDE9002320462C
:101330002946FFF70BFC10B118F0010F0ED14946FA
:1013400058460FF02FFF00233370139B01371F60A7
:10135000239B002B00F03C821E6039E20697334647
:101360001E4613F8012D392A07D19A45F8D1069A5D
:101370000132069230228AF800201A7801321A705F
:101380009FE76B4B0022FFF779F900220023044608
:101390000D46FFF7DBFB00289ED0D0E70B9A002A12
:1013A00000F0E180099A012A00F3C480149A002A0F
:1013B00000F0B78003F233430A9C4646089A0121A5
:1013C0001A445846984408920FF054FF05465EB1FF
:1013D000089B002B08DDB342089AA8BF3346A8EB50
:1013E0000308F61AD31A08930A9BF3B10B9B002B40
:1013F00000F0BD808CB12946224658460FF0F2FF1E
:101400004A460146054658460FF04AFF49460690AF
:1014100058460FF0C7FE069B99460A9B1A1B04D03C
:10142000494658460FF0DEFF8146012158460FF02D
:1014300021FF0F9B0446002B00F0CE811A46014687
:1014400058460FF0CFFF099B012B044600F395800F
:10145000049B002B40F08D80059BC3F31303002BEE
:1014600040F08980059B23F000431B0D1B052BB129
:10147000089B0133089308F1010801230A930F9B8D
:10148000002B00F0AF81236904EB8303186911F08E
:10149000CCF8C0F12000089B184410F01F0077D052
:1014A000C0F12003042B6BDD089BC0F11C0003443A
:1014B000804406440893B8F1000F05DD49464246D2
:1014C00058460FF0E9FF8146089B002B05DD2146B9
:1014D0001A4658460FF0E0FF0446129B002B59D0E5
:1014E0002146484611F0EDF8002853DA7B1E06939A
:1014F000494600230A2258460FF076FE0B9B814690
:10150000002B00F07181002329460A2258460FF073
:101510006BFE009B002B054667DC099B022B41DC20
:1015200063E0169BC3F1360346E700BF0000E03FCF
:1015300000002440039B5C1E0A9BA34209DB1C1B8A
:10154000039B002BBFF639AF039BA8EB03060023D8
:1015500034E70A9B0F9A0A94E31A1A440F92039BEA
:10156000464600242AE70A9C0B9D46462FE70A9A26
:1015700056E7002382E7049B80E700230A9382E773
:1015800099D0089A1C331A4498441E44089292E752
:101590000346F6E7039B0697002B20DC0093099B8C
:1015A000022B1EDD009B002B7FF4C2AD21460522DD
:1015B00058460FF019FE01460446484611F081F8DE
:1015C00000287FF7B5AD5646312306F8013B069B50
:1015D00001330693B0E5039C06972546F3E7039B8A
:1015E00000930B9B002B00F00381002E05DD2946A4
:1015F000324658460FF050FF05460A9B002B5AD042
:10160000696858460FF08EFD064628B9834B02469E
:1016100040F2EF21FFF763BB2A690232920005F125
:101620000C010C3010F0DDFD0122314658460FF060
:1016300033FF0AF101030393009B53440B93049B74
:1016400003F001032F460A930546039B2146013B05
:101650004846009310F016FE3946049000F1300819
:10166000484611F02EF82A460890214658460FF0B9
:101670007FFFC268064602BB0146484611F021F8CA
:101680000246314658460E920FF08CFD099B0E9A89
:10169000039E42EA03010A9B194310D1B8F1390FA6
:1016A00029D0089B002B02DD049B03F13108009B2D
:1016B00083F8008041E52846BBE70122E1E7089B6B
:1016C000002B04DB09990B430A990B4320D1002A14
:1016D000EDDD4946012258460FF0DEFE21468146E7
:1016E00010F0EFFF002803DCE1D118F0010FDED08D
:1016F000B8F1390FD8D1009A3923137033461E46FA
:10170000013B16F8012C392A51D001321A7014E528
:10171000002A07DDB8F1390FEDD0009A08F1010376
:1017200013700AE5039B0B9A03F8018C934228D0AF
:10173000494600230A2258460FF056FDAF42814623
:101740004FF000034FF00A023946584607D10FF018
:101750004BFD07460546039B0133039375E70FF0E6
:1017600043FD2946074600230A2258460FF03CFD58
:101770000546F0E7009B002BCCBF1E4601265644D1
:1017800000274946012258460FF086FE2146814631
:1017900010F097FF0028B1DC02D118F0010FADD195
:1017A00033461E4613F8012D302AFAD0C5E49A4577
:1017B000A5D1069B0133069331238AF80030BCE49F
:1017C000239BDFF85CA01BB10AF10803239A136086
:1017D000504619B0BDE8F08F099B012B7FF738AE5A
:1017E0000F9B0A93012056E6009B002B7FF7D7AE94
:1017F00056462146484610F045FD00F1300806F8EF
:10180000018B009BA6EB0A029342B3DD49460023FD
:101810000A2258460FF0E8FC8146EAE72E38010814
:10182000B13701080348044B834202D0034B03B194
:1018300018477047CC020020CC02002000000000B6
:101840000548064B1B1AD90F01EBA301491002D022
:10185000034B03B118477047CC020020CC02002094
:101860000000000010B5064C237843B9FFF7DAFFFB
:10187000044B13B10448AFF300800123237010BD63
:10188000F6190020000000002027010808B5054BCC
:101890001BB105490548AFF30080BDE80840FFF7DC
:1018A000CFBF00BF00000000A415002020270108C2
:1018B0000048704716FCFFFF704700BF704700BF2D
:1018C0000048704716FCFFFFC1600020704700BF52
:1018D000007A704710B5054C204600F0D3F9204639
:1018E000034A0449BDE8104010F0D9B8E0020020D6
:1018F00004000020A51B000808B55A2001F05AFE7C
:101900005A2008BD10F0D2B80020704780B138B519
:101910000D460446FFF7F8FF28B929462046BDE8E2
:101920003840FFF7EFBF2046BDE8384010F0BCB8A4
:10193000704700BF10B5044A026000230446C3800C
:1019400000F058FF204610BD182D010810B50446C0
:10195000FFF7F0FF2046082110F0A8F8204610BD40
:1019600010B504468069044B236010B1842110F047
:101970009DF8204610BD00BFC42F010810B50446D5
:10198000FFF7EEFF2046282110F090F8204610BD0A
:1019900010B5034B03600446FFF7CCFF204610BD93
:1019A0009028010810B50446FFF7F2FF20461021E9
:1019B00010F07CF8204610BD10B5054C204600F014
:1019C0002BF9204600F022FD01F0FAFB002010BDAB
:1019D000E002002010B5034B03600446FFF7D8FF78
:1019E000204610BDF02E010810B50446FFF7F2FFA7
:1019F0002046642110F05AF8204610BD10B5044668
:101A000000F5D760FFF7ACFF04F5D260FFF7A8FF41
:101A100004F5CD60FFF7A4FF04F5C860FFF7A0FF51
:101A200004F5C360FFF79CFF04F5BE60FFF798FF65
:101A300004F5B960FFF794FF04F5B460FFF790FF79
:101A400004F5AF60FFF78CFF04F5AA60FFF788FF8D
:101A500004F5A560FFF784FF04F5A060FFF780FFA1
:101A600004F59B60FFF77CFF04F59660FFF778FFB5
:101A700004F59160FFF774FF04F58C60FFF770FFC9
:101A800004F58760FFF76CFF04F58260FFF768FFDD
:101A900004F57A70FFF764FF04F57070FFF760FFDC
:101AA00004F56670FFF75CFF04F55C70FFF758FF04
:101AB00004F55270FFF754FF04F54870FFF750FF2C
:101AC00004F53E70FFF74CFF04F53470FFF748FF54
:101AD00004F52A70FFF744FF04F52070FFF740FF7C
:101AE00004F51670FFF73CFF04F50C70FFF738FFA4
:101AF00004F50270FFF734FF04F5F070FFF730FFD4
:101B000004F5DC70FFF72CFF04F5C870FFF728FF21
:101B100004F5B470FFF724FF04F5A070FFF720FF71
:101B200004F58C70FFF71CFF04F1F000FFF718FFBD
:101B300004F1C800FFF714FF04F1A000FFF710FF45
:101B400004F17800FFF70CFF04F15000FFF708FFE5
:101B500004F12800FFF704FF2046FFF701FF2046AD
:101B600010BD00BF10B504460068A168091AFFF750
:101B7000CDFE204610BD00BF704700BF10B5044623
:101B8000FFF7F0FF204610BD10B5044B044640F8A7
:101B9000A43BFFF7F3FF204610BD00BFB42E0108A1
:101BA000FFF798BE144B10B50446036000F62C20D6
:101BB00005F062FC04F67810FFF7E6FF04F6C400B7
:101BC000FFF7E2FF04F5F56006F0BCF804F1C80089
:101BD000FFF714FF04F1A00002F04EFE04F17000C4
:101BE00002F006FB04F10800FFF7F4FE2046FFF7C1
:101BF000A1FE204610BD00BFF028010810B5044624
:101C0000FFF7D0FF20464FF42C610FF04FFF204626
:101C100010BD00BF704700BFC388DA0719D443F076
:101C2000010370B5C3800646A0300B4C01F0F2F8FA
:101C300004F1780554F8043F184613B11B681B687B
:101C40009847AC42F6D1F38843F480430020F380F8
:101C500070BD0248704700BFBC15002016FCFFFF96
:101C6000084601F083BA00BF00F0BCBE10B5044ABC
:101C70000023C0E90023044600F07EFD204610BD8D
:101C8000182D010870B5044684B02546FFF7EEFF15
:101C9000244B45F8083B1C224FF08041284604F0B5
:101CA000C7FC01232946002204F1700002F0EEFA7D
:101CB00004F1A00002F04AFE04F5F56504F1C80045
:101CC00000F038F804F58C6204F59161284606F0BE
:101CD0003BFA04F5826204F5876104F6C40003F060
:101CE0005BFD04F5AA6204F5AF6104F6781003F019
:101CF00053FD00260C4B00930122CDE9016204F153
:101D0000F00304F5667204F55C7104F62C2005F00E
:101D100093FA064A064BE680204614601D6004B024
:101D200070BD00BFF0280108809FD500BC150020C1
:101D3000DC16002010B5012300226421044604F0C3
:101D4000DDFE01231A46652104F1280004F0D6FEC9
:101D500001230222662104F1500004F0CFFE01238A
:101D60000322672104F1780004F0C8FE0323042253
:101D7000682104F1A00004F0C1FE012305226921BD
:101D800004F1C80004F0BAFE032306226A2104F11C
:101D9000F00004F0B3FE032307226B2104F58C70DE
:101DA00004F0ACFE032308226C2104F5A07004F0BB
:101DB000A5FE032309226D2104F5B47004F09EFEF4
:101DC00001230A226E2104F5C87004F097FE032354
:101DD0000B226F2104F5DC7004F090FE01230C222D
:101DE000702104F5F07004F089FE01230F227121A7
:101DF00004F5027004F082FE01231022722104F522
:101E00000C7004F07BFE01231122732104F516707F
:101E100004F074FE01231222742104F5207004F0F2
:101E20006DFE01231422752104F52A7004F066FE6C
:101E300001231522762104F5347004F05FFE01239E
:101E40001622772104F53E7004F058FE0123172274
:101E5000782104F5487004F051FE012318227921FD
:101E600004F5527004F04AFE012319227A2104F588
:101E70005C7004F043FE01231A227B2104F5667096
:101E800004F03CFE01231B227C2104F5707004F059
:101E900035FE01231C227D2104F57A7004F02EFE0C
:101EA00003231D227E2104F5826004F027FE032314
:101EB0001E227F2104F5876004F020FE03231F22E9
:101EC000802104F58C6004F019FE01232022812179
:101ED00004F5916004F012FE01232122822104F511
:101EE000966004F00BFE01232222832104F59B60FF
:101EF00004F004FE01232322842104F5A06004F0F1
:101F0000FDFD03232422852104F5A56004F0F6FDE0
:101F100003232522862104F5AA6004F0EFFD0123A6
:101F20002622872104F5AF6004F0E8FD01232A2270
:101F3000882104F5B46004F0E1FD01232B228921FE
:101F400004F5B96004F0DAFD01232C228A2104F59E
:101F5000BE6004F0D3FD01232D228B2104F5C36064
:101F600004F0CCFD012330228C2104F5C86004F07C
:101F7000C5FD012331228D2104F5CD6004F0BEFDA5
:101F8000012344228E2104F5D26004F0B7FD03231F
:101F90004FF6FF72002104F5D76004F0AFFD204634
:101FA00010BD00BF024AD36843F40043D3607047BA
:101FB000000400584FF0B04382B09A6C42F4805253
:101FC0009A649B6C03F480530193019B02B07047A9
:101FD000002801DB0FF06CBD08B50FF015FF00BF46
:101FE0000FF064BD6FF00040704700BF401AB0FAB8
:101FF00080F04009704700BF0368013303607047F9
:10200000704700BF704700BF704700BFFFF7FCBFBD
:10201000FFF7FABF88422CBF00200120704700BFA5
:10202000B0F90200704700BF04307047704700BF2E
:1020300010B50446FFF768FC20B12046BDE810400B
:102040000FF036BD2046BDE81040FFF7C1BF00BF0E
:102050000020704770B514460AB9104670BD054699
:102060000E46FFF751FCB8B16B1E721E1E1906E03A
:1020700029462046FFF7CEFFA8B9B342EED013F8A9
:10208000015F12F8014F28462146FFF7C3FF0028E1
:10209000EED04FF0FF3070BD224631462846BDE8F5
:1020A000704010F097B9012070BD00BF704700BFAD
:1020B00008B5FFF7FBFF08BD08B5FFF7F9FF08BD3E
:1020C00008B50830FFF7F8FF08BD00BF704700BF34
:1020D00010B50C46FFF7FAFF034620461C68FFF7D1
:1020E000F5FF0068001BB0FA80F0400910BD00BF8A
:1020F00010B5431E04461A46002113F8010FFFF7DE
:1021000075FF0028F7D0C4F10100104410BD00BFD6
:1021100010B50446FFF7F8FB20B92046BDE8104093
:10212000FEF7BEBD2046FFF7E3FF10BD70B50646C3
:102130000846FFF767FF054610461446FFF7E8FF1D
:10214000854201D0002070BD3046FFF75FFF2A4670
:102150002146FFF77FFFB0FA80F0400970BD00BF55
:10216000704700BF10B5FFF761FF04460846FFF750
:10217000F7FF0378237010BD02B9704770B50446AD
:102180000D461646FFF7C0FB50B1264429462046AF
:102190000134FFF7E7FFB44205F10105F6D170BD48
:1021A000324629462046BDE8704010F01AB800BFFC
:1021B00002B9704770B50E4614460546FFF7A4FBFA
:1021C0002246314620B12846BDE87040FFF7D4BF13
:1021D0002846BDE8704010F004B800BF38B504468A
:1021E0000D46FFF791FB10B92B78237038BD2946B7
:1021F0002046BDE83840FFF7B5BF00BF016070471B
:1022000001607047816070474160704730B5054696
:1022100083B00C46FFF7F8FF2868FFF7F5FE0023B0
:102220000DF1070120448DF80730FFF7D7FF03B009
:1022300030BD00BF0B680360704700BF00B50246A9
:1022400083B00846FFF7E0FE03461046FFF7DAFECC
:102250006946034401A80093FFF7ECFF019803B01F
:102260005DF804FB00B583B0FFF7CEFE6946034678
:1022700001A80093FFF7DEFF019803B05DF804FBAF
:1022800010B5FFF7AFFE0B68834211D893420AD90D
:10229000B3EB420F4FEA420405D2A04227BF0C60C5
:1022A000234608600346BDE81040581CFFF7C0BE37
:1022B00001480FF0B2FD00BF1029010838B50068D1
:1022C000FFF7A2FE0D460446FFF71EFB28B9691C66
:1022D0002046BDE83840FFF783BE2046BDE83840C1
:1022E0000FF0E2BB012A01D0FFF762BF08B5FFF78C
:1022F00075FF08BD08B5521AFFF7F4FF08BD00BF0F
:10230000704700BF08B5FFF7FBFF08BD08B5FFF732
:10231000F9FF08BD08B50830FFF7F8FF08BD00BF9A
:1023200010B503460068FFF76FFE04461846FFF736
:10233000F1FF201AB0FA80F0400910BD10B5044634
:10234000FFF7EEFF00B110BDA1682046FFF7B6FF12
:1023500010BD00BF10B50446006808B1FFF7EEFFDE
:10236000204610BDF0B5571A83B00F2F0D46164604
:102370000097044619D8FFF76BFE20B10023A36035
:10238000E3602361636120683246FFF73DFE294622
:10239000FFF7B0FF0023394620460193FFF736FFD1
:1023A00001A8FFF7D7FF03B0F0BD00226946FFF791
:1023B00067FF01462046FFF723FF009F204639466E
:1023C000FFF720FFDFE700BFF8B50D4604461646CD
:1023D0001F46FFF775FE3A4601462046FFF70EFFFF
:1023E00035B12046AA192946FFF7BCFF2046F8BDA3
:1023F000002EF6D001480FF00DFD00BF282901087E
:1024000010B50446FFF79AFF204610BD2DE9F04FA6
:10241000A3B0FFF7CFFD00F5F565002300931A4642
:102420004FF4E131284605F0A5F90FA806F050FC5D
:102430000FA806F037FBFFF7B5FD7A4B7A4ED3F8BD
:1024400000907A4FDFF81C82314609A802F068FB41
:10245000002309AA294603A801F090FB09A802F06D
:10246000FFFA039B1846FFF7DBFD021E5DDD1846F1
:10247000FFF7DAFD05AB014609A8FFF7A5FF099CA8
:102480002046FFF7EFFE214603460A980493FFF724
:10249000D5FE05900AE00498FFF7B2FD04460078E7
:1024A0000EF026FB207004A8FFF7A6FD05A904A8DE
:1024B000FFF70EFE0028EED0DDE9094A3A46514604
:1024C0002046FFF733FE002833D1424651462046CE
:1024D000FFF72CFE002836D1554A51462046FFF71B
:1024E00025FE002832D1534A51462046FFF71EFEF2
:1024F0008346002834D1504A51462046FFF716FE45
:1025000000286ED14D4A51462046FFF70FFE0028A5
:1025100042D14B4A51462046FFF708FEA0B3494836
:102520000EF016FC09A8FFF76BFF03A802F098FA5B
:102530008AE702F05BFC014643480EF055F90A2099
:102540000EF0E0FAEEE705F093FFEBE702F05CFC3B
:1025500001463E480EF048F90A200EF0D3FAE1E7B2
:1025600005A802F019FC014660BBD9F804203848E0
:10257000D3B20093C2F30723C2F307420EF034F93B
:102580000A200EF0BFFACDE72046FFF741FD0146D5
:1025900030480EF029F9C5E705A802F053FCD9F838
:1025A00014209DF81630D9F80C102B48CDE90032D4
:1025B0009DF815309DF814200EF016F90A200EF043
:1025C000A1FAAFE79DF8142024480EF00DF90A2077
:1025D0000EF098FA09A8FFF713FF03A802F040FADB
:1025E00032E75946584602F0E9FB01461C48DFF83D
:1025F00078A00EF0F9F80A200EF084FA05A802F08F
:10260000CBFB9DF814200146044650460EF0ECF832
:102610000A200EF077FA642005F028FF002CEDD197
:1026200080E700BF00000320782C01085C29010826
:1026300094290108C0290108602A0108CC2A010850
:10264000402B0108482B0108642901089C29010836
:10265000FC2901084C2C0108D42A0108C8290108CA
:10266000682A01088C290108902A010870B584B0F5
:1026700004AC04E90F00BDF80230012B15D0022B89
:1026800001D004B070BD144C144E04F1780554F818
:10269000040F30B1C3885B0403D503689B68B34261
:1026A00017D1AC42F3D104B070BD0B4C0C4E04F109
:1026B000780501E0AC42E4D054F8040F0028F9D0CA
:1026C000C3889A04F6D503685B68B342F2D0984792
:1026D000F0E79847E5E700BFBC150020BD180008EB
:1026E000B9180008022908B509D90339012904D805
:1026F0000368094ADB6893420BD1002008BD00291A
:10270000FBD00368044ADB689342F6D00121984766
:10271000F3E700219847F0E7C11800082DE9F041E0
:1027200082B0BDF82080CBB10F2906460D46174672
:102730001C4602D1B8F1C00F10D128200FF0B8F913
:102740002346A9B2CDF80080BAB2044600F0CCFE10
:10275000336821465B683046984710B902B0BDE83F
:10276000F081204600F0DAFE2821204602B0BDE8C4
:10277000F0410FF09BB900BF70B51A4C82B02246F1
:10278000002302E001331E2B05D052F8041B002960
:10279000F8D144F82300144C237813F001030BD133
:1027A000124D2A6842B10093102201234FF47A702F
:1027B000002101F033FD08B102B070BDC0260096C3
:1027C0000B4B286801221021FFF7A8FF084B28684F
:1027D000009602220F21FFF7A1FF237843F00103A7
:1027E0002370E9E7C0150020F719002070160020BB
:1027F0006D26000810B4084C0023224602E0013385
:102800001E2B06D052F8041B8142F8D1002244F856
:1028100023205DF8044B7047C015002030B41C2500
:10282000002408E0092B16D93733043D03552B1D2E
:1028300004F1010416D021FA05F303F00F03002A76
:10284000F0D1002BEED18DB1043DB4B921FA05F3DE
:1028500003F00F03F5E73033043D03552B1D04F15E
:102860000104E8D10023035530BC704730230355E1
:1028700001340023035530BC704730230355013425
:10288000D9E700BF70B51C4E0D46044605F0E0FDCB
:1028900030684319B3F5006FAC460ED3174B0422D2
:1028A000C6E9002340F2FA739D421DDD144C4FF03F
:1028B000150C142306F1080003E0043030446B1EAD
:1028C000BDB15D1C6119034614F8012B03F8012BFF
:1028D000A142F9D128440023037033686344336074
:1028E000BDE8704005F0A6BD082030446B1E002DE9
:1028F000E7D1AC46EFE700BFA00D00202E2E2E0A38
:10290000642C010810B50446FEF7CAF901462046BA
:10291000BDE81040FFF7B6BF10B586B06AB101AC94
:102920000A4601462046FFF779FF0848FFF7EAFF0D
:102930002046FFF7E7FF06B010BD01AC214602F0CC
:10294000ABF92046FFF7DEFF06B010BD7C2C010876
:102950002DE9F04155EC104B064629462046FEF77E
:102960003DF90746FDF720FE0B4602462946204664
:10297000FDF7CCFC002204460D4638461146FFF711
:10298000CBFF1648FFF7BEFF002E24DD144F06F1E3
:10299000FF3800263B46324620462946FDF76EFEAC
:1029A0000D460446FEF742F900221146FFF7B4FF38
:1029B00029462046FEF712F9FDF7F6FD02460B46C2
:1029C00020462946FDF7A2FC08F1FF38B8F1FF3F89
:1029D00004460D46DED1BDE8F08100BF802C010821
:1029E00000002440024B1B6803B11847704700BF2A
:1029F00038160020F0B5054683B00F4616462B4624
:102A000001E0252C0CD0194613F8014B002CF8D10D
:102A1000491B2846FFF736FF002F3BD103B0F0BD1E
:102A2000591B284601391C46FFF72CFF002025467C
:102A300015F8012BA2F12503532B31D8DFE803F061
:102A40004930303030303030303030343434343459
:102A50003434343434303030303030303030303062
:102A60003030303030303030303030303030303066
:102A70003030303B30303030303030303030644205
:102A800030593030303030303030303B30304D30F5
:102A900042303052224803B0BDE8F040FFF732BF69
:102AA0002048FFF72FFFAAE700EB8000303A02EB47
:102AB00040002C46BBE7012256F8040B1146FFF7F5
:102AC0002BFF9CE7002256F8040B1146FFF724FF6A
:102AD00095E71548FFF716FF91E756F8040BFFF747
:102AE00011FF8CE756F8040B01220021FFF714FFB9
:102AF00085E7073626F00706002896ED000B0BDD6C
:102B0000FFF726FF08367AE756F8043B01930121C8
:102B100001A8FFF7B7FE72E70420FFF719FFF1E7FE
:102B20008C2C0108882C0108842C01080FB400B5F6
:102B300083B004AA012152F8040B0192FFF75AFF57
:102B400003B05DF804EB04B0704700BF9BB110B553
:102B50008CB00446202092B2009089B202A800F006
:102B6000C3FC236802A99B682046984702A800F08E
:102B7000D5FC0CB010BD70472DE9F04182B0BDF816
:102B80002080CBB10F2906460D4617461C4602D1C0
:102B9000B8F1C00F10D128200EF08AFF2346A9B249
:102BA000CDF80080BAB2044600F09EFC336821469E
:102BB0005B683046984710B902B0BDE8F081204606
:102BC00000F0ACFC2821204602B0BDE8F0410EF038
:102BD0006DBF00BF38B50D46044605F039FC2B68C3
:102BE000656153B11A469B69002BFBD19461C4E91E
:102BF0000632BDE8384005F01DBCC4E906332C6040
:102C0000BDE8384005F016BC4369BBB110B50446B9
:102C100005F01EFCE3696BB1A2699A61A3690BB16F
:102C2000E269DA610023C4E90533E361BDE81040DD
:102C300005F000BCD4E905321A60EFE7704700BF29
:102C40002DE9F04184B004AC04E90F0011490C688F
:102C50004FF47A72DDE902010023FEF707F864B150
:102C6000DFF8348006460F462546A469EB689E428D
:102C700077F1000304D2002CF6D104B0BDE8F08156
:102C80002846FFF7C1FF41462846FFF7A3FF002C67
:102C9000EAD1F2E74C160020501600202DE9F04F43
:102CA00085B004AC04E90F00DFF8BC802B4AD8F8EB
:102CB00000301668BDF80040BDF80250CBB1A6B197
:102CC0004FF0000940F2FE3B40F2FF37B2465C4550
:102CD000DAF80C30B6694FEA13419AB20B460BD0C2
:102CE000AAB1944213D0002EF0D1A4F2FE33012BEE
:102CF0001FD805B0BDE8F08FBA42F1D1A1B9B9F142
:102D0000000F20D04FF00109002EDFD1EDE709B10F
:102D1000AB42E8D15046FFF777FF11495046FFF725
:102D200059FF002ED2D1E0E7A942E8D0002ECDD144
:102D3000DBE70C4BD8F800002A46214605B0BDE879
:102D4000F04FFFF703BF5046FFF75EFF04495046C0
:102D5000FFF740FF4FF00109D6E700BF48160020FB
:102D6000501600209D2C00083C16002038B505F0B8
:102D70006FFB154B1C68C4B12046FFF745FF05F0FB
:102D800059FB002323616362256805F0B1FB01460E
:102D9000284605F0B9FB05F05BFB0C4B1A68226274
:102DA0001C6005F047FB204638BD28200EF080FE51
:102DB0002822002104460FF018F905F09DFB00239E
:102DC000C4E90003A360DAE744160020401600209F
:102DD00038B50A4B1C682369DB070CD5084D2868F9
:102DE00020B1626A42620023636238BDFFF7BEFF12
:102DF00028600028F5D1204638BD00BF5C160020B1
:102E000058160020024B187800F00100704700BFF0
:102E1000F8190020F0B583B00246FFF7F3FF08B1C0
:102E200003B0F0BD204D214E2A600446FFF79EFFFF
:102E30001F4B20491860FFF7CDFEFFF797FF07688B
:102E4000306005F055FB011F384605F05BFB336829
:102E50001949186805F054FB2868F0B1C026174BD3
:102E60000096224640F2FF31FFF786FE0096134B94
:102E70002868224640F2FE31FFF77EFE01230F2232
:102E8000002100944FF47A7001F0C8F928680C4BC7
:102E9000009601220F21FFF76FFE0A4A137843F0D4
:102EA0000103137003B0F0BD3C160020541600203F
:102EB0005C16002050160020313300089D2C0008BD
:102EC000412C0008F8190020F0B5134F3B6883B07F
:102ED000FBB10446FFF796FFD8B10E46FFF778FF27
:102EE00044EA0643C3600546FFF78EFE0B492846B9
:102EF000FFF770FEA4F2FE33012B07D9C022386819
:102F0000074B009221463246FFF736FE002003B001
:102F1000F0BD0448FBE700BF3C1600204816002027
:102F20009D2C000816FCFFFF2DE9F04128B30E464A
:102F300019B3174698460546FFF718FF0446E0B157
:102F400032463B462946006805F0E8FA256805F058
:102F5000CFFA011F284605F0D5FA0A4B0A49206826
:102F6000B8F1000F18BF194605F0CAFA2046074904
:102F7000FFF730FE2046BDE8F08100242046BDE882
:102F8000F08100BF1533000875320008501600208C
:102F900070B50446FFF736FF40B10D462046114696
:102FA00001232A46BDE87040FFF7BEBF70BD00BFD9
:102FB000F8B50546006805F0A9FA044605F0A8FA38
:102FC000D5E90123241A9B1A9C4200D8F8BD0A4E69
:102FD0003768356005F09CFA6868203424F01F04D7
:102FE00038B9204600F024FA0444C5E901043760EA
:102FF000F8BD00F04BFAF4E75C160020024B1868AD
:10300000B0FA80F0400970475016002010B5104CFF
:1030100023789A0784B004D5FFF7F0FF70B904B0A5
:1030200010BD43F002002070012302220F216846E8
:1030300001F0DEFCFFF7E2FF0028F0D0237823F058
:103040000203237004B0BDE8104000F0BFBA00BF17
:10305000F81900202DE9F041FFF7D4FE002843D0F5
:103060003C4D2C682269D1071FD43B4E3B4F33683F
:103070003968002B43D06069B0425DD099422B6023
:103080003ED09C4230D08C4230D0354B62699A425F
:103090002CD02046FFF78CFF2A68A168936820682F
:1030A0001268BDE8F041FDF79BB82E4E20683368EA
:1030B00042F0020222611A691C6842F004021A619D
:1030C00005F02AFA0146204605F01EFA3068FFF79F
:1030D0006FFF336899681868FDF7C3F82B68002202
:1030E00032601A69920730D4BDE8F0812A68002165
:1030F00093681268BDE8F0410846FDF771B8296091
:1031000013071ED52C60FFF781FF3368002BFAD020
:10311000A3422B60E8D039688B42B4D10E6805F029
:10312000E7F9011F304605F0EDF93B680E491868D4
:1031300005F0E6F93968A6E7A069002818BF03463C
:103140009CE72B689C42E9D1CEE7BDE8F0411868C6
:10315000FDF7C1B85C160020501600205416002060
:1031600044160020581600203133000838B50446B4
:10317000FFF748FE88B1FFF72BFE054601F03AF84D
:103180000444EC602846FFF73FFD28460549FFF759
:1031900021FDBDE83840FFF75DBF2046BDE838405F
:1031A00005F064B94C16002010B5FFF78DFE0446FB
:1031B00008B1204610BDFFF74DFF204610BD00BFEF
:1031C00038B5FFF71FFE00B938BD274D274C2868DA
:1031D000FFF71AFD28682146FFF7FCFC23684BB176
:1031E0009B693BB100221C469B690132002BFAD13E
:1031F000032A1DDC2B6800221A611C6805F078F98F
:103200000146204605F080F905F022F9184A2968A0
:1032100013688B4218D02BB11A6A91421CD0134606
:10322000002BF9D105F006F9BDE83840FFF712BFD1
:10323000E2692068936100F029F9606800F026F9DE
:10324000204600F023F9D5E71B6A136005F0F2F879
:10325000BDE83840FFF7FEBE0A6A1A6205F0EAF8D8
:10326000BDE83840FFF7F6BE5C160020441600208B
:103270004016002010B50C468047A047BDE810401E
:10328000FFF79EBF08B5FFF7BDFD00B908BDBDE85B
:103290000840FFF795BF00BF002832D0F8B50446BC
:1032A000FFF7B0FD58B3184D2B681A6952070E4648
:1032B00001D15A6A32B1154A31462046FFF768FEFD
:1032C0000020F8BD1868FCF7EEFF2A68136913F0B8
:1032D000020710D143F0010313613046A0472B6869
:1032E0001A695F6222F0010119615307E8D530467F
:1032F000FFF7C8FFE4E723F003031361E0E70448A6
:10330000F8BD6FF47A7070475C16002085320008B3
:1033100016FCFFFF38B51446034610460D46984785
:103320002046A8472046BDE83840FFF7ABBF00BFA6
:1033300008B5FFF76BFEFFF78DFEFAE7024B187832
:10334000C0F38000704700BFF8190020F8B50C4E9C
:1033500004460D46377805F07BF80A4A42F83740B4
:1033600002EBC7022B1B55609B08327843F00043E9
:103370002360531C337005F05DF80020F8BD00BFDA
:10338000FA19002060160020830770B50C464FEA3A
:10339000900645D178B105F05BF8D4E90004751CBE
:1033A000844206D90168002908DB00EB81008442D1
:1033B000F8D805F03FF80024204670BD21F0004306
:1033C0004FEA810C50F82320002A00EB81010EDB2C
:1033D0000FE022F00042134443F00042026050F834
:1033E0002320002A00EB83014FEA830C01DA8C4290
:1033F000EFD89D4201D96044D2E78442D9D9023640
:103400009E4203D200EB8606B4420BD8056825F035
:103410000045044644F8045B05F00CF8204670BDF6
:103420000136B8E75B1B43F0004346F8043CF0E785
:1034300038B5044640B1104D2B783BB120460F49BA
:10344000FFF7A2FF044688B1204638BD0C490D4A5B
:1034500008680D491370FFF779FF012320460749DB
:103460002B70FFF791FF04460028EDD1142000F0E7
:10347000A1F8204638BD00BFF919002060160020D1
:1034800014000020FA19002000F80220B0B10F4B00
:103490001A68824210B5044602D25B68834204D89F
:1034A000BDE810401E2000F085B850F8043C002B09
:1034B00005DD43F0004344F8043C10BD70471E2076
:1034C00000F078F854F8043CF3E700BF60160020E1
:1034D00008B50846FFF7ACFF08BD00BF08B50846B1
:1034E000FFF7D4FF08BD00BF2DE9F04104461030BE
:1034F0000F4616461D46BDF8188001F059FA002205
:103500000023C4E90823002127806680A560E160CC
:10351000A4F804802046BDE8F08100BF83889B07A3
:1035200010B5044604D5806810B118210EF0BEFA1B
:10353000204610BD82B030B5046A83B006A981E888
:103540000C0014B3236901225BB11C461B690132D4
:10355000002BFAD1092A04DD03B0BDE8304002B0E7
:10356000704718200EF0A4FA08AB054693E8030054
:103570008DE8030006AB0CCB284601F05DFA25610F
:1035800003B0BDE8304002B07047054618200EF089
:103590008FFA08AB044693E803008DE8030006ABFE
:1035A0000CCB204601F048FA2C6203B0BDE8304055
:1035B00002B0704710B5044604F04AFF02482146A5
:1035C000FFF7B4FAFEE700BF902C010804F04CBFEF
:1035D000C389DB0600D4704710B5044684B08189E6
:1035E00001230422684601F003FAE38923F0100363
:1035F000E38104B010BD00BFA0F10800FFF7E8BFF1
:103600000EB42DE9F04787B00FAB53F8045B00937D
:10361000297861B3044606E0236820469B6901359A
:103620009847297819B32529F6D1009A6B7816683E
:10363000101D252B009005F1020559D0583BDAB238
:10364000202A19D8202B17D8DFE803F08D1616167C
:10365000161616161616164C3316161616161616B7
:10366000161616161616162616161616570007B034
:10367000BDE8F04703B0704723683F219B692046AF
:10368000984723683F219B692046984723683F213C
:103690009B6920469847C4E716F8011B0029C0D053
:1036A000236820469B699847317801360029F7D175
:1036B000B7E7002301A93046CDE90133CDE9033353
:1036C000059301F0E9FA9DF804100029A9D00DF145
:1036D0000506236820469B69984716F8011B0029B8
:1036E000F7D19EE72368F1B29B692046984798E797
:1036F000236820469B69984793E701274FF01C08F1
:103700004FF008094FF0000A26FA08F101F00F0106
:1037100001F13003392B17DD3FB3573122682046C2
:10372000936998474FF0010A09F1FF3313F0FF093D
:10373000A8F104083FF475AF26FA08F101F00F0173
:1037400001F13003392BE7DC302B16D1BAF1000F31
:103750000DD1B9F1010F0AD009F1FF335FFA83F9F6
:10376000A8F10408D0E70027C8E73731D6E7236877
:1037700030219B6920469847D6E7D9B2CEE700BFF3
:10378000B0F90200704700BF0A4600210EF02DBCC0
:10379000C3891B0719D530B5838EC16A02689BB2F5
:1037A0000446C95C926985B09047A58E94F8303084
:1037B000628EADB20135B5FBF3F103FB1155ADB22D
:1037C000AA4203D0A58605B030BD7047022201236E
:1037D00040F2FF31684601F00BF9236801219B6834
:1037E00020469847A58605B030BD00BFC38943F089
:1037F0000103C381704700BFC38943F00203C38143
:10380000704700BFC38923F00103C381704700BF25
:10381000C38923F00203C381704700BFC3895A07DD
:1038200070B5044607D5036800219B689847206A55
:10383000FFF72CFEE38994F8240023F004039DB2E3
:10384000E581FFF7F5FD206260B12368002645F0B1
:1038500004055B68E6842685E58131462046984765
:10386000304670BD6FF47B7070BD00BF38B5C38942
:103870001A07044607D5036801219B689847E06A48
:10388000FFF704FEE38994F8300023F008039DB2AB
:10389000E581FFF7CDFDE06230B1002045F008057D
:1038A0006086A086E58138BD6FF47B7038BD00BFAF
:1038B00010B5BDF808C0BDF80C40A4450ED0013BC2
:1038C0000CF10100B0FBF2FE02FB1E0011F80CE04F
:1038D00003F801EF1FFA80FC6445F1D110BD00BF71
:1038E0000249016000228280704700BF082E010853
:1038F0002DE9F84304460F4616461D469DF82080E4
:10390000BDF82490FFF7ECFF04F10800FEF7AEF9D4
:10391000174B23603833A360C4E9047604F1180020
:1039200001F038F90023E3842362E3622385638690
:10393000A38601354FF0FF3308F10108E3613A46F1
:1039400004F11001A4F80C9084F8245084F830801D
:10395000204601F007FA324604F11401204601F036
:1039600001FAE38943F480432046E381BDE8F8830C
:103970003C2D0108012A22D0022A38B504460D4602
:103980000BD0C38C90F8242011FA83F191FBF2F351
:1039900002FB1311C161002038BD11468089FFF779
:1039A00093FAE38C94F8242015FA83F393FBF2F155
:1039B00002FB1133E361FFF74DFB002038BD6FF4CC
:1039C0007A707047012A0FD038B514460546183072
:1039D00001F0E4F8022C01D0002038BDA8890121B3
:1039E000FFF7E2FB002038BD6FF47A70704700BF2C
:1039F000C3895B0710B5044606D5E38C208D9BB2C6
:103A0000C01A18BF012010BDFFF708FF0028F4D02E
:103A100010BD00BF38B50446F9B101290D4610D1DB
:103A20002046FFF7E5FF0028FAD0238D216A94F89D
:103A30002420C85C0133B3FBF2F102FB1133238570
:103A400038BD0229F1D1FFF7D3FF0028EDD12A4676
:103A500001212046FFF78EFFE7E7FFF7C9FF0028A7
:103A6000E3D1014838BD00BF0CFCFFFF838E408EC0
:103A70009BB2013BC01A18BF01207047828E438E53
:103A800092B29A4288BF90F83010828E86BF5B183F
:103A900092B292B2981A70472DE9F843161E044666
:103AA00043DD458E1F4601F1FF394FF0000808E065
:103AB000E26A19F8011FD15408F1010846456586EC
:103AC00024D094F83030A08E691CB1FBF3F203FBD4
:103AD000121180B22B468DB2A842E9D12368012190
:103AE0005B6820469847022F18D0012F02D067B19B
:103AF000638EDDE72046FFF7C1FF0028F8DD204692
:103B0000FFF7BCFF0028F5DCF2E7464623680121F9
:103B10005B68204698473046BDE8F883394640F256
:103B2000FF30FFF741FB638EC2E70026EEE700BFE0
:103B3000C08900F00100704738B50446FFF7F8FF70
:103B4000B8B92046FFF752FEE3895B070D4609D559
:103B500029462046FFF75EFF02462046FFF752FE49
:103B6000104638BDFFF75AFE02460028F0D0104636
:103B700038BD014AF4E700BF0DFCFFFF2DE9F04F0F
:103B800087B002AF824608467B60FFF7D1FF00286E
:103B900040F09A80CB8916465A07894671D5484627
:103BA000FFF724FEB9F82650B9F828303B60ADB2D3
:103BB000AB4200F0F7803068FFF7E2FD1D46D9F810
:103BC0002010002811F8058069DD4FF0000B4FF040
:103BD000FF340FFA8BF1304600F0F0FF02463068F8
:103BE000FFF7CEFD0BF1010B424508BF2C465845AF
:103BF000EFDC99F82420B9F8263001359BB295FB0B
:103C0000F2F102FB1155AB4266D0631CD7D0002CF9
:103C100057DB3B68A342E84640F38A8099F824507A
:103C2000ED1A254405F1080323F00703ADEB030D5E
:103C300002AE691C3046A4B2FFF7A6FD99F8242015
:103C4000D9F8201001943B68009348463346FFF7AB
:103C50002FFEB9F8283001332B4493FBF2F102FB1D
:103C60001133A9F828304846FFF7CCFD2AB2314677
:103C7000504600F06BFF5046C5461437BD46BDE8C0
:103C8000F08F0846FFF7CAFD002888D0014650464D
:103C900000F032FF50461437BD46BDE8F08F99F86A
:103CA0002420B9F8263001359BB295FBF2F402FBD3
:103CB0001455AB42F5D17B68012B41D07B68022BB8
:103CC00012D04846FFF79EFD504600F063FF504675
:103CD0001437BD46BDE8F08F7B68012B2BD07B6885
:103CE000022B94D1631C92D1314607F10C0000F0F5
:103CF00047FF022207F10C014846FFF763FE07F178
:103D00000C0000F0ADFEB9F826309BB25C1E002B13
:103D100051D007F10C0000F03DFF07F10C0109F153
:103D2000180000F03BFF07F10C0000F099FE70E76F
:103D30003B68E51A76E7611C7FF469AFD9F820107B
:103D4000B9F826309BB2AB42FAD0002811F80580B2
:103D500020DD4FF0000B4FF0FF340FFA8BF13046AF
:103D600000F02CFF02463068FFF70AFD0BF1010B53
:103D7000424508BF2C465845EFDC99F82430013500
:103D800095FBF3F203FB1255621CD7D0002CBFF653
:103D900040AF96E799F82430013595FBF3F203FB29
:103DA0001255CDE77B68012B88D13068FFF7E8FC1E
:103DB000D9F82010C4E707F10C0099F8244000F06E
:103DC000E9FE07F10C0109F1180000F0E7FE07F128
:103DD0000C00013C00F044FE19E700BFC08900F070
:103DE000020070472DE9F0410446FFF7F7FF18BBCA
:103DF000002A16461DDD0F46D9B120469846FFF72A
:103E0000FBFCE3891B070CD5434632463946204666
:103E1000FFF742FE05462046FFF7FAFC2846BDE8BC
:103E2000F081FFF723FD05460028EDD02846BDE8C8
:103E3000F0816FF47A75F1E7004DEFE70DFCFFFFBD
:103E400000B583B08C4613460DF1070101228DF8B1
:103E500007C0FFF7C7FF03B05DF804FB10B5074BC1
:103E6000036003F1380204468260183000F0F8FD68
:103E700004F10800FDF75EFD204610BD3C2D010851
:103E800008B5806803681B6B9847002008BD00BF19
:103E900008B5806803689B6A9847002008BD00BF8A
:103EA0000A4600210EF0A1B89DED007BC0E9022377
:103EB000BDF80810BDF80C20049B018280ED007B4A
:103EC00042824361704700BF8842B8BF08467047CE
:103ED0002DE9F041064614461D4604F0B9FAB768CC
:103EE000767B3B6838469A6CD3F83C8090470A2C26
:103EF00075F1000538BF0A24021931463846C0471B
:103F0000BDE8F04104F096BA10B4C46A002C0DDD8F
:103F1000436A002201E0A24208D0198A1846013201
:103F200018330029F7D15DF8044B704700205DF885
:103F3000044B7047826A00238A420B8208BF836267
:103F4000704700BF70B5044604F082FAA0680368A9
:103F50009B6C9847A388A269E16980B2C31A9BB29F
:103F6000D218A261E288A08013449BB241F1000103
:103F7000B3F57A7FE161E38013D3D4E90421013200
:103F800041F10001A3F57A73501C9BB20D4641F13B
:103F90000001B3F57A7F16460246F3D2C4E9046500
:103FA000E380BDE8704004F045BA00BF10B5044698
:103FB000FFF7C8FFD4E9040110BD00BF10B50446E7
:103FC000FFF7C0FFD4E9060110BD00BF2DE9F0479F
:103FD00086B00546BDF83890BDF83CA09DF84080FD
:103FE00016461F46FFF790FF70B304462846FFF7BA
:103FF000E5FF821947EB0103B8F1000F21D14046DC
:104000004146CDE90001119904912046CDE9029A7B
:10401000FFF74AFF04F01CFAAB6A33B1D3E902029E
:10402000A168E3688142934105D2AC6232463B46C7
:104030002846FFF74DFF04F0FDF9002006B0BDE86B
:10404000F08730463946DCE76FF47B70F6E700BF57
:1040500010B584B0BDF81810089C0091BDF81C1074
:1040600003940124CDE90114FFF7B0FF04B010BDA3
:10407000F0B5C66A436A00218E4283B0816224DDB6
:1040800005460A461C8A013264B149B1C8680190EC
:104090009F688868DC688742019874EB000001D251
:1040A000AB621946B24203F11803EBD169B1AB69B7
:1040B00088680A21C01AFFF707FF0246C31728467F
:1040C00003B0BDE8F040FFF703BF03B0F0BD00BF91
:1040D0002DE9F04F074689B061B18468067B2368FB
:1040E0002046DD6B9B6C9847354A03463146204697
:1040F0001A44A8473846FFF725FFFA6A7C6A002A67
:1041000048DD0025AB461CE0D4E9002052EA000C53
:10411000B4F812A044D09B1841EB0001C4E902316D
:1041200001235246CDE900980293314604A800F0DD
:1041300071FCFA6A0BF1010B0135AA4204F1180473
:1041400025DD268A002EF7D0D7F81890A368D7F877
:104150001C80E168994578EB0100D5D26369DB07E3
:10416000EAD5FFF7EBF860B1D7E90636D4E90201EA
:10417000144A13EB020C46F10002604571EB020297
:1041800013D3FA6A0135AA4204F11804D9DCBBF151
:10419000000FB3D1384609B0BDE8F04FFFF768BF54
:1041A00021463846FFF7C6FEBAE7CDE900360123BF
:1041B0000293052240F2FF3104A800F02BFCE0E757
:1041C00080969800A0860100084B1B6801465BB1F1
:1041D0001A7B114111F0010103D001211846FFF7AC
:1041E00077BF1846FFF774BF704700BF6C160020FA
:1041F000704700BF034B186808B1FFF7D7BE002017
:10420000002170476C160020034B186808B1FFF7B7
:10421000D5BE0020002170476C16002030B5084C38
:10422000246885B054B1089D0092CDE9013502465D
:104230000B462046FFF70CFF05B030BD0148FBE7F9
:104240006C16002016FCFFFF38B50C4D286898B19D
:10425000FFF7B4FE0A4B044642F2107098472868F4
:10426000FFF7ACFE0749431F1B1B42F210720020F0
:10427000B2FBF3F30B6038BD034838BD6C16002069
:10428000090000206816002016FCFFFFF8B5044660
:10429000164663731A4A1B4820600A23E362A16032
:1042A0002673F0200D461460FFF7C2F8F02160621B
:1042B000FFF7F6FD2B681449002200272846DD6928
:1042C000A7620023C4E90423C4E90623A847A06821
:1042D0000E4A03683146DB6B9847A06803685B6A47
:1042E0009847A068E78003689B6C9847A368A08004
:1042F0001A681846936A9847FFF7A6FF2046F8BD4C
:104300006C160020982D0108C9410008809698007D
:1043100082B08DE80C00014802B0704716FCFFFF28
:104320000048704716FCFFFF0048704716FCFFFF6F
:10433000002070470029806905DD08B904E010B14C
:104340000139406AFBD17047704700BF82B010B599
:104350008E4684B049688446DEF800000DF1080EF0
:10436000AEE8030006A981E80C00039BDA0714D528
:104370005910029A5CF801108C580CEB630C08ABD6
:1043800093E803008DE8030006AB0CCB6046A04722
:1043900004B0BDE8104002B07047029C0CEB630C07
:1043A000EDE700BF2DE9F04183885D0782B0064646
:1043B00003D59C062FD4D8063AD443F00403B38027
:1043C00006F1100506F1180816E0F7680097A047F7
:1043D000B388DA061CD5346AD4B194E80F00D4F857
:1043E00010C085E80F00C6F820C0182120460DF047
:1043F0005DFBFEF72FFEB388B46899070ED413F067
:10440000010F95E80F00E0D1A047B388DA06E2D4A7
:1044100023F00403B38002B0BDE8F08198E8030004
:1044200095E80C008DE80300204600F06BFCCFE718
:1044300006F1180393E8030006F110030CCB8DE896
:1044400003003046FFF776F8E5E700BF002940D0CB
:10445000F8B584690646002C38D00D46002705E0E3
:10446000A268AB689A420DD0646A04B3AA88A38894
:1044700053409907F8D49207F2D5A968A06800F0D4
:104480005DFCC0B12B8813B122889A42ECD16B88B5
:10449000ABB9B3680BB120469847A3886FEA434392
:1044A0006FEA5343A380646A0137002CDED1002FEA
:1044B0000CDD2046F8BDAB889B07D5D4D0E76288D9
:1044C0009A42D1D1B368002BE5D1E6E76FF47A7058
:1044D000F8BD6FF47A707047002973D0F0B5846925
:1044E00085B006460D463CB963E0A3889B0708D516
:1044F00091421AD0646A1CB3AB8821682A68980775
:10450000F3D49142F6D1A268AB689A42F2D1EA683C
:10451000E3689A42EED1B4F90420A388002A02DAB3
:10452000C3F30E03A380294830E0A968A06800F017
:1045300005FC0028DED0EA68E3689A42DAD1EAE7AF
:10454000B7692A88002F35D038463B4603E0596AC0
:10455000184679B10B4619889142F8D307E059887B
:104560006C88A14206D2596A1846B9B10B4619881F
:104570009142F4D087420BD0436A6B6245620123BB
:1045800040F2FD31684600F033FA002005B0F0BD7E
:104590003B88934209D96862B561F0E79F42EBD14D
:1045A0005988A1421846E7D9F5E7E5D16C883B4622
:1045B000F6E70A88B561012340F2FD31684600F054
:1045C00017FAE2E76FF47A70704700BF16FCFFFF3E
:1045D0000A4600210DF009BD0249016000228260F7
:1045E000704700BFA82D010838B5044603F030FF1E
:1045F000E5692DB12B69E36133B1E38C013BE384C1
:1046000003F018FF284638BD2362F6E72DE9F04194
:104610008469FCB1002780463E46A3881A042546DB
:10462000646A05D42E46002CF7D13846BDE8F081E7
:104630005B07F7D45EB174622846FEF76FFF28214E
:1046400028460DF033FA0137002CE6D1EDE7C8F823
:104650001840F1E727463846BDE8F081F8B584698F
:10466000002C43D00D46164601270CE0A38803F02A
:10467000C003A3F1C003B3FA83F35B09B34215D0BF
:104680000027646A3CB323882988994201D0002B13
:10469000F7D163886A889A4201D0002BF1D1FEF7E6
:1046A000B1FB0028E2D10123B342E9D1B4F90430CF
:1046B000B4F804E0002BE3DB95E80F0004F1100CE4
:1046C0001EF0400F8CE80F0007D02046FFF76AFE6F
:1046D000646A002CD7D13846F8BDFEF793FB00285A
:1046E000F3D021460348FEF7D7FDCAE70127384635
:1046F000F8BD00BFA5430008F0B5012283B0076AEA
:1047000004460D46FFF7AAFF10B9E38C092B01D927
:1047100003B0F0BD18200DF0CBF905F108030646F3
:1047200093E803008DE80300304695E80C0000F0A4
:1047300083F903F08DFE67B13B6933613E613369F4
:104740005BB1E38C0133E38403B0BDE8F04003F0D8
:1047500071BEE3693361E661F2E72662F1E700BF0B
:1047600082B008B502A9C1E90023FFF7C5FFBDE883
:104770000840002002B0704782B038B5054604A951
:1047800081E80C00FFF742FF2846FFF72DFF98B1A4
:10479000044604E02846FFF727FF044660B10022E4
:1047A00021462846FFF75AFF182120460DF07EF9D2
:1047B000FEF724FC0028EDD1BDE8384002B0704778
:1047C00070B505462E46084682B046F8040B6C4686
:1047D0003046102184E80C00FFF7FAFE234603CB95
:1047E000034A6860284671606A6102B070BD00BF0C
:1047F0004D4300082DE9F041044688461646103026
:104800001F46BDF8205000F0D3F86680A4F8008061
:1048100018200DF04DF906AB0CCB39460646FFF7D4
:10482000CFFF0023C4E9026300220023C4E9082368
:1048300045F00205A5802046BDE8F08110B58EB098
:104840008C461099044699B12021029110A903C900
:104850008DE80300614604A8FFF7CCFF236804A994
:104860009B682046984704A8FEF758FE0EB010BD7E
:104870001199C907FAD5E7E710B50E4B84B00022AD
:10488000CDE902320C4B036003F1200104AB044676
:10489000C16013E9030023468DE803000F21204681
:1048A000FFF7CCFF04F10C00FDF744F8204604B0FC
:1048B00010BD00BF79470008C02D0108A0F10C0011
:1048C000FFF7DABF10B50446FFF7D6FF20462821D0
:1048D0000DF0ECF8204610BDA0F10C00FFF7F2BF80
:1048E0002DE9F04184B0BDF83070F3B11C460A9B4D
:1048F00006460D469046DBB10F2D01D1C02F14D1D5
:1049000028200DF0D5F802970AA9074603C92346C7
:104910008DE80300424629463846FFF76BFF3368AF
:1049200039465B683046984730B904B0BDE8F0813D
:104930000B9BDB07F9D5DFE73846FEF7EFFD2821B3
:10494000384604B0BDE8F0410DF0B0B810B50446EB
:1049500086B0FFF741FE04F10C00FDF787F9114A1C
:104960000023CDE9042306AA12E903000E4A8DE8CC
:10497000030022602032E260C022C4E906332362D1
:10498000E3840F210292234602222046FFF7A8FF6C
:10499000064B1A6812B1204606B010BD20461C60B6
:1049A00006B010BD79470008C02D01087016002020
:1049B00010B5002303600446FFF726FCC4E902019A
:1049C000204610BD30B5094B1C6883B05CB100F1C6
:1049D0000802034692E8030025688DE8030020469C
:1049E0000CCB2968884703B030BD00BF701600208B
:1049F00038B50180428004461D46FFF705FCC4E936
:104A000002010DB9204638BD2046FFF7DBFF2046E6
:104A100038BD00BF10B59DED027B9DF810300180C0
:104A200080ED027B044642800BB9204610BDFFF7A3
:104A3000C9FF204610BD00BF82B010B502A90446D0
:104A400081E80C00FFF7B4FF02AB0FCB84E80F0046
:104A5000002320462361BDE8104002B0704700BF2C
:104A600010B50446006800F0DFF8204610BD00BF16
:104A7000B0F90200704700BF014B0360704700BFF0
:104A8000FC2D010870B50546501D14460E46FEF774
:104A9000CFFC286000F0E4F82868224644803146C4
:104AA00004300DF09EFB2B68234400221A7170BD68
:104AB00010B5044629B10160084600F0A3F820466D
:104AC00010BDFFF7D9FF204610BD00BF10B5064C42
:104AD00006492046FFF7ECFF2046054A0549BDE898
:104AE00010400CF0DCBF00BF74160020FC2D010844
:104AF00004000020614A000810B50B4684B004464B
:104B000001A9184600F0C8F801A8FCF7C9F801A9E6
:104B100002462046FFF7B6FF204604B010BD00BF96
:104B200038B5054611B10B780C4623B92846FFF776
:104B3000A3FF284638BD0846FCF7B2F821460246D6
:104B40002846FFF79FFF284638BD00BF70B50546D1
:104B500049B10B780C4633B108461646FCF7A0F86D
:104B6000B3B2834204D92846FFF786FF284670BDBA
:104B7000284632462146FFF785FF284670BD00BF14
:104B800010B50B6804461846236000F03BF8204639
:104B900010BD00BF08B5FFF76FFF08BD38B50B6843
:104BA00004460068984206D00D4600F03DF828689B
:104BB000206000F027F8204638BD00BF00290BDB3D
:104BC00008B503681846FFF753FF884202DD0B441F
:104BD000187908BD002008BD00207047FFF776BF98
:104BE00008B503884FF6FF729BB2934208D0012BA1
:104BF00001D0DB0702D41E20FEF7DCFC002008BD3C
:104C0000012008BD10B50446FFF7EAFF00B110BD52
:104C1000BFF35B8FD4E85F3F0233C4E8523F002A02
:104C2000F8D1BFF35B8F10BD10B50446FFF7D8FF76
:104C300000B110BDBFF35B8FD4E85F3F9A1EC4E89C
:104C4000512F0029F8D1BFF35B8F9BB2032BF0D11A
:104C50002046BDE8104000F001B800BFFEF716BCCA
:104C600003230380704700BF98B110B50446FCF7DA
:104C700017F8431E23449C4238BF204607D20278CF
:104C8000197800F8011B03F801298342F7D80020A6
:104C900010BD6FF47A707047F8B569B3074687EABC
:104CA000E774174D0846C4EBE77401F1FF3E4FF07F
:104CB000000C85FB0423E217C2EBA30202EB820384
:104CC000A4EB4303002BB8BF5B42303366460EF8BB
:104CD000013F0CF1010C1446002AEAD1002F04DA3E
:104CE0002D2300F80C3006F1020C002300F80C30E4
:104CF000FFF7BAFF2046F8BD6FF47A74FAE700BFF9
:104D00006766666682B030B583B006A981E80C009C
:104D100008AB8646844693E803005EF8045B8DE8A2
:104D2000030006AB0CCBDCF8144071462846A047C4
:104D300003B0BDE8304002B0704700BF08B502685C
:104D40000B689A4201D0002008BD102204310430C3
:104D50000DF040FBB0FA80F0400908BD6FF47D70A3
:104D6000704700BFA1B170B506460868904214466E
:104D70000D460BD010B103681B6E98472CB1236809
:104D80000022DB6D3146204698472C60002070BD24
:104D90006FF47A70704700BF10B5002286B00446E9
:104DA00001AB11464FF6524000F038F914B19DF8AE
:104DB000133023709DF8120006B010BD00B50B46ED
:104DC00085B080B10090042113B1081D0193C1B2D8
:104DD0006B461A464FF6544000F020F99DF80E003D
:104DE00005B05DF804FB0146EEE700BF00B5002208
:104DF00085B06B4611464FF6554000F00FF99DF80F
:104E00000E0005B05DF804FB00B5002285B06B46CE
:104E100011464FF65A4000F001F99DF80E0005B01A
:104E20005DF804FB00B585B000F10C026B462E2145
:104E30004FF6664000F0F2F89DF80E0005B05DF800
:104E400004FB00BF2A4B2B4ADB6B9B009BB203F198
:104E5000005303F54033F0B519680B68934241D015
:104E60000B694A698F694C688E68190E00254FF0EE
:104E7000000C61F3070562F3070C03F00F014FF01C
:104E8000000E61F3070E67F30F2C0021270A67F36A
:104E900007011F0C67F30F25170E67F30F2E370E50
:104EA00067F30F211F0A67F31745C3F3031363F377
:104EB0001F65130C63F3174E230E63F3174C330C6B
:104EC000120A240C63F3174162F31F6E64F31F6C24
:104ED00066F31F610560C0F804E0C0F808C0C16057
:104EE0000020F0BDD1E90532D1E90346CF69BCE726
:104EF00000400058B95646A970B5D1E90062114D7D
:104F0000114C124984B003462A60114A1148E361EA
:104F1000114B16602361216000F0D0F80F4A2B6816
:104F20000120107003B198470D4A236801211170C8
:104F300033B10C490C4A0396CDE9011201A89847F8
:104F400004B070BD781600207C160020DD520008E9
:104F5000D0020020D802002019530008D4020020FB
:104F6000CC020020B1500008E14F000810B51948EC
:104F700084B000F0A7F810B9174C237863B915482E
:104F800000F0A0F810B9144B1B780BB904B010BD99
:104F9000FFF7ECFF04B010BD0E4801A900F0B6F811
:104FA0000E4BDB697BB10199039101228DF808203A
:104FB00002A898479DF80830237033B90199054835
:104FC00000F08CF8DBE701232370019800F028FA49
:104FD000D5E700BFD8020020CC0200207C160020BC
:104FE00008B50146034800F085F8BDE80840FFF722
:104FF000BDBF00BFD802002070B5054600F034FAEE
:10500000054E044601E0337823B100F02DFA001B71
:10501000A842F8D370BD00BFFB1900202DE9F0476E
:10502000DFF878801D46D8F8003006460C46174653
:105030000BB100209847DFF86890D9F80000394696
:10504000134FA0F80960C472224600260C303E704F
:105050000DF0C7F80F4B104A1B693146012430464A
:105060001470984748F2E800FFF7C6FFD9F800101F
:105070008A7805F1080003320DF0B3F8D8F8003053
:105080003C701BB12046BDE8F0471847BDE8F087EB
:10509000D40200207C160020FB1900207816002086
:1050A000D0020020014B00221A707047FB1900202B
:1050B00008B50020FFF7F6FF08BD00BF00604060A4
:1050C000704700BFEFF3108372B60268801AB0FA1F
:1050D00080F0400983F31088704700BFEFF310831E
:1050E00072B602680A60486001600A68516083F322
:1050F00010887047EFF3108372B6086042684A6008
:1051000041604A68116083F310887047EFF3108C98
:1051100072B603680B600368EFF3108172B65A68C9
:10512000186810601B685A6081F310888CF310882F
:10513000704700BF30B50A4C0A4D83B008E001A9A2
:105140002046FFF7E3FF2B6901991869FFF7D2FFAB
:105150002046FFF7B7FF0028F1D003B030BD00BFF5
:10516000AC160020000003200CB400B583B004A9E5
:1051700051F8040B01910BF0E3FE03B05DF804EB72
:1051800002B0704704F028BE0A4B0B480B490C4A8A
:1051900010B40C4C1C600C4C586099600B481A629F
:1051A0000B495C620B4A5DF8044BD86019615A6187
:1051B00004F03ABE0000032090000320800003208A
:1051C00078000320A0000320700003206800032063
:1051D0004C0003204800032038B50C4D04462846F7
:1051E000FFF76CFF0A4BA1685B680A4A1960E16827
:1051F000D960C3E9012504F039FED4E9000206496B
:10520000064B08601A60002038BD00BF3000032044
:105210000000032008070320A8160020A416002081
:1052200008B50A4B5A685B68126801211172186848
:10523000C17A19B904F022FE002008BD044A0C30DE
:10524000FFF792FF04F01AFE002008BD00000320C3
:10525000D82C010870B51B4C1B4E1C4D82B005E0CC
:10526000FF2B817A1CD021BB2B6898472046FFF783
:1052700029FF20BB204601A9FFF748FF0198437A88
:10528000A3F10E02012AEBD80E2BEDD1817A04296D
:10529000EAD00F300C4A0439FFF766FF0198E3E7C4
:1052A0000229E1D00D30084A0239FFF75DFF01986D
:1052B000DAE70B303246FFF757FF0198D4E702B028
:1052C00070BD00BF30000320D82C0108A8160020B4
:1052D000014B1B68184700BFA416002038B50A4DC3
:1052E00004462846FFF7EAFE084BA268DB68C3E9DC
:1052F000002504F0CBFDD4E900020549054B086008
:105300001A60002038BD00BF2800032000000320E1
:10531000A01600209C16002008B50A4BDA68DB684E
:105320001268102111721868C17A19B904F0B6FD1B
:10533000002008BD044A0C30FFF716FF04F0AEFD54
:10534000002008BD00000320D82C010810B50B4C2C
:10535000E3681868437A0E2B06D0E268084B1068A1
:105360001B68BDE810401847817A0429F5D0054A2A
:1053700004390F30FFF7F8FEEFE700BF000003200D
:10538000A0160020D82C010870B5124C124E134DF7
:1053900082B002E02A68184690472046FFF792FE46
:1053A000A8B901A92046FFF7B1FE019B5A7AFF2A4E
:1053B000F0D193F80AC0BCF1020F3246ACF1020101
:1053C00003F10D00E6D0FFF7CFFE019BE2E702B04C
:1053D00070BD00BF28000320D82C01089C160020B7
:1053E00070B50C4D04462846FFF768FE0A48FFF7E3
:1053F00065FE0A4BE1681B692668D4E90102C3E92E
:105400000060C3E90221D4E90412C3E904519A619E
:1054100070BD00BF40000320AC1600200000032038
:1054200008B501460348FFF765FEBDE8084002489D
:1054300004F074BDAC16002035510008704700BF61
:1054400010B5084C82B006E0204601A9FFF75EFEC9
:105450000198FFF7F3FF2046FFF734FE0028F3D052
:1054600002B010BD3800032007F0B2BA0C488546E0
:1054700000F028F80B480C490C4A00230CF005FBFF
:105480000B480C490C4A00230CF0FFFA0B480C495E
:1054900000230CF000FB0AF059FFFCF78DFAFEE741
:1054A0000000032004000020CC020020043A010880
:1054B00008070320430B032008070320E002002015
:1054C000001A00201449D1F888204FF0B04342F46C
:1054D0007002C1F888201968104A4FF4E02041F0AA
:1054E00001011960986018680D4902401A60D3F8EC
:1054F000942022F00502C3F89420D3F8982022F0DB
:105500000102C3F89820D96019611A68002122F4B9
:1055100080221A609961704700ED00E0FBFEF6FA08
:105520000010042208B5083008F09EFA002008BDDB
:1055300001707047704700BF704700BF03680133B8
:10554000036070470368013303607047002801DB84
:105550000CF0AEBA08B50CF057FC00BF704700BFA6
:105560000CF0A4BA03680B4403607047704700BF97
:10557000081A7047FFF7FABF20207047704700BF36
:1055800008B5FFF7FBFF0023037008BD70B110B52D
:105590000446FCF7B9F920B12046BDE810400CF0F4
:1055A00087BA2046BDE81040FFF7D0BF704700BF64
:1055B00080B138B50D460446FCF7A6F928B929464E
:1055C0002046BDE83840FFF7CBBF2046BDE8384055
:1055D0000CF06ABA704700BF70B505460C46164617
:1055E000FCF736FD40B9621B00D170BD314628463C
:1055F000BDE870400CF0F9BCAC42F6D0621B3146FD
:105600002846BDE870400CF0F0BC00BFFFF7E4BFD7
:1056100010B5044619B10C442146FFF7F7FF2046A8
:1056200010BD00BF704700BF38B504460846154698
:10563000FFF7F8FF2A4601462046BDE83840FFF74D
:10564000E7BF00BF19B14FF42A4383637047AA2311
:105650008363704703680A689A4238BF08467047F8
:105660002DE9F04F90F8B03085B00191002B57D064
:1056700000F1080A0446504608F0DCF9D4E9297123
:105680003846FFF775FF0346FFF776FFB3FBF0F9E7
:1056900009FB00F2934288BF09F101098046B9F184
:1056A000000F30D0002509F1FF3B2E4617E0FFF731
:1056B000C9FF3846FFF75EFF93B294F8A010421975
:1056C000504608F047FA013607464544E0B9B1456F
:1056D00019D0D4E929713846FFF74AFF03465B1B0E
:1056E00003A902A8CDE90238FFF7B4FF5E450268BE
:1056F0004FF000012046DAD1019B002BD7D00121C9
:10570000FFF7A0FFD5E70027504608F09DF90023DA
:10571000384684F8B030A4F8A03005B0BDE8F08F6A
:105720000427384605B0BDE8F08F00BF00B583B050
:105730006FF000424FF0FF3301A96846CDE9002326
:10574000FFF788FF006803B05DF804FB10B504465E
:10575000FFF7ECFFA04201D3204610BD01480CF03A
:105760005CFB00BFA82C01080022C0E90022826077
:10577000704700BF10B50446FFF7F6FF204610BD86
:1057800010B50446FFF7F6FF204610BD10B50446DD
:10579000FFF7F6FF204610BDF8B504460E46154645
:1057A00000270AF081FD094B2360A4F8A07004F1E2
:1057B000A400FFF7EBFFB18AAA8A84F8B070012336
:1057C000A4F89E30C4E919122046F8BDB42E010891
:1057D00002680B689A4238BF084670470B6803603E
:1057E000704700BF00B583B0011D01A8FFF7F6FFA9
:1057F000019803B05DF804FB00B583B0014601A831
:10580000FFF7ECFF019803B05DF804FB00B583B02F
:105810004318694601A80093FFF7E0FF019803B021
:105820005DF804FB704700BF10B50C46FFF7FAFFA8
:10583000034620461C68FFF7F5FF0068201A10BDDC
:1058400010B504460846FFF7EDFF036823602046C5
:1058500010BD00BF704700BF10B5FFF78FFE0446B4
:105860000846FFF7F7FF0378237010BD0B6803604D
:10587000704700BF00B583B0014601A8FFF7F6FFEF
:10588000019803B05DF804FB704700BF10B50C46EB
:10589000FFF7FAFF034620461C68FFF7F5FF006894
:1058A000201A10BD10B50446FFF75EFF204610BD5C
:1058B00038B5054608460C46FFF768FE0444C5E9BE
:1058C0000000AC6038BD00BF38B504460D46114637
:1058D000FFF7E8FF20462946FFF7EAFF204638BDDC
:1058E000FFF724BF70B584B0054601911646FFF757
:1058F000F7FF0346D5E90001FFF73AFE019A1B1AAC
:10590000934213D3044601A903A80394FFF760FF51
:105910000368E418284606D2FFF7E2FFA04228BF3A
:10592000204604B070BDFFF7DBFFFAE730460CF00D
:1059300074FA00BF704700BF43688B4218BF4160D4
:10594000704700BF08B50168FFF7F6FF08BD00BF4C
:1059500008B590F8B03003B108BD012380F8B0302D
:10596000A0F8A010A430FFF7EDFF08BD704700BFFE
:105970000B680360704700BF704700BF10B582B06E
:10598000044601A80191FFF7F7FF03682360204652
:1059900002B010BD00B585B0019001A8FFF7ECFF83
:1059A000034603A81968FFF7E9FF039805B05DF8FF
:1059B00004FB00BF00B583B0014601A8FFF7DEFF7E
:1059C000019803B05DF804FB704700BF10B50C46AA
:1059D000FFF7FAFF034620461C68FFF7F5FF006853
:1059E000001BB0FA80F0400910BD00BF00B583B0C5
:1059F000019001A8FFF716FF006803B05DF804FBF3
:105A000038B504460D46FFF7F1FF291A2046BDE8D8
:105A10003840FFF7FBBE00BF704700BF0068FFF7CC
:105A200089BD00BF704700BF10B5FFF7A7FD044652
:105A30000846FFF7F7FF0378237010BD70B50D46D9
:105A40000646FBF761FF04462846FFF7EBFF0146D9
:105A5000304624B9FFF792FD0B78037070BDBDE8A6
:105A60007040FFF7E1BF00BF88422DE9F0411746C3
:105A700013D080460E46154604462846FCF77CF8AF
:105A800021460134FFF7DAFFA64205F10105F4D102
:105A9000A6EB0806B819BDE8F0811046BDE8F08114
:105AA00010B50446FBF730FF28B903462046FFF740
:105AB00065FD037010BD2046BDE81040FFF760BDD6
:105AC00038B5044651B145182046FCF755F8013465
:105AD000FFF7E6FFA542F7D1284638BD0546284620
